:020000040800F2
:10000000F01000207D02000871350008E13300087F
:100010006D350008A1040008F93D0008000000004B
:10002000000000000000000000000000E5350008AE
:100030007D06000800000000E13500083D3600089C
:10004000970200089702000897020008970200082C
:10005000970200089702000897020008970200081C
:10006000970200089702000897020008970200080C
:1000700097020008970200089702000897020008FC
:10008000C5040008D504000897020008970200087C
:10009000A5040008B50400089702000897020008AC
:1000A00097020008970200089702000897020008CC
:1000B00097020008970200089702000897020008BC
:1000C00097020008970200089702000897020008AC
:1000D0009702000897020008E93D0008970200080F
:1000E000970200089702000897020008970200088C
:1000F000970200089702000897020008970200087C
:10010000970200089702000897020008970200086B
:10011000970200089702000897020008970200085B
:10012000970200089702000897020008970200084B
:10013000970200089702000897020008970200083B
:10014000970200089702000897020008970200082B
:10015000970200089702000897020008970200081B
:10016000970200089702000897020008970200080B
:10017000970200089702000897020008000000009C
:1001800097020008970200089702000897020008EB
:1001900097020008970200089702000897020008DB
:1001A00000000000000000009702000800F002F8C4
:1001B00000F054F814A696E8000CB244B344DA45B3
:1001C00001D100F04BF8BAE80F000FA696E8300016
:1001D000A5EB040504EB0607AAEB0704A7F101074A
:1001E0004FEA15154FEA3414A4F10104AC4201D3CF
:1001F00000F034F813F0010F18BFFB1A43F00103AD
:1002000000F001F8DBE718475C4900007C4900007A
:10021000103A24BF78C878C1FAD8520724BF30C832
:1002200030C144BF04680C60704700007047000094
:100230000023002400250026103A28BF78C1FBD8EF
:10024000520728BF30C148BF0B6070471FB504F08C
:100250006BFC00F0D5F81FBD10B510BD00F0EAF83A
:100260001146FFF7F3FF04F0C3FB00F008F903B4F5
:10027000FFF7F2FF03BC00F00BF9000009488047CC
:1002800009480047FEE7FEE7FEE7FEE7FEE7FEE778
:10029000FEE7FEE7FEE7FEE704480549054A064B90
:1002A0007047000045360008AD010008F00A002044
:1002B000F0100020F00C0020F00C002053EA020C9B
:1002C00000F069802DE9F04B4FF00006002B1FBFB6
:1002D000B3FA83F503FA05F424FA05F65E4012BF7B
:1002E0001643B2FA82F502FA05F4C5F120051EBFE5
:1002F00022FA05FC44EA0C04203556EA044C4FEA85
:10030000144418BF641C4FF000084FF000099042DD
:1003100071EB030C39D3002919BFB1FA81F701FA47
:1003200007F6B0FA80F700FA07F6C7F120071EBFFC
:1003300020FA07FC46EA0C062037B6FBF4FCA7EBD4
:100340000507103F07F01F0BCBF120062CFA06F62D
:100350000CFA0BFB44BFB3460026202FA4BF5E4619
:100360004FF0000B5BEA060C08BF4FF0010B19EBD6
:100370000B0948EB0608ABFB027C06FB02CC0BFB2F
:1003800003CCC01B71EB0C01C1E70B460246414692
:100390004846BDE8F08B13B5084318BF4FF0FF3057
:1003A0000146AFF30080BDE81C4070474FF00002EB
:1003B00000B5134694469646203922BFA0E80C505B
:1003C000A0E80C50B1F12001BFF4F7AF090728BF36
:1003D000A0E80C5048BF0CC05DF804EB890028BFB2
:1003E00040F8042B08BF704748BF20F8022B11F0DB
:1003F000804F18BF00F8012B704770477047704757
:1004000008487CB57844009007487844009C05462D
:10041000019004E02046016808448047241DAC4256
:10042000F8D17CBD7C4700007A4700000048704747
:10043000100000207546FFF7F9FFAE46050069463B
:10044000534620F00700854618B020B5FFF724FF7B
:10045000BDE820404FF000064FF000074FF00008C5
:100460004FF0000BAC46ACE8C009ACE8C009ACE802
:10047000C009ACE8C00921F007018D46704710B5EE
:100480000446AFF300802046BDE81040FFF7EFBE02
:1004900001491820ABBEFEE72600020070470000AD
:1004A000FFE7FEE780B540F66010C2F2000000F002
:1004B000BDFA80BD80B540F66010C2F2000000F0C9
:1004C000B5FA80BD80B540F68810C2F2000000F099
:1004D00073FF80BD80B540F6E810C2F2000000F066
:1004E0006BFF80BD82B001900198007810384AF609
:1004F000AB21CAF6AA21A0FB0110000900900099C7
:1005000044F65A30C0F60000405C0199C865009876
:10051000042807D3FFE701990868042262F3090061
:10052000886506E00199086840F2FF3290438865CB
:10053000FFE70198806D02B07047000086B005901B
:1005400000208DF813000598806A03900598806953
:1005500010BBFFE70398029003281BD80299DFE83D
:1005600001F0020D0218059890F82F00C00720B185
:10057000FFE701208DF81300FFE70CE00598C06A43
:10058000B0F1C07F04D1FFE701208DF81300FFE731
:1005900001E000E0FFE745E005988069B0F5005F05
:1005A00025D1FFE70398019003281ED80199DFE8C1
:1005B00001F00206021101208DF8130016E00598E3
:1005C00090F82F00C00720B1FFE701208DF813003D
:1005D000FFE70BE00598C06AB0F1C07F04D1FFE7E8
:1005E00001208DF81300FFE700E0FFE719E0039812
:1005F0000090032804D3FFE70098032804D00EE0FE
:1006000001208DF813000BE0059890F82F00C0072B
:1006100020B1FFE701208DF81300FFE700E0FFE7BE
:10062000FFE7FFE79DF8130006B0704784B0039022
:1006300002910192009303980168086820F48020D9
:10064000086000980399096848600398806840280A
:1006500009D1FFE701980399096888600298039916
:100660000968C86008E002980399096888600198E1
:1006700003990968C860FFE704B07047704700003D
:1006800081B0EFF3108072B60090FFE7FEE7000044
:1006900086B004900391049800680190049890F843
:1006A00020008DF803009DF80300012806D0FFE725
:1006B0009DF80300022840F0B080FFE746F20040BA
:1006C000C4F2000001900199D1F8000240F001004D
:1006D000C1F800020199D1F8000220F47C50C1F861
:1006E00000020398426A0199D1F8000240EA022010
:1006F000C1F800020398406900F01F010120884002
:100700000290029A0199D1F81C029043C1F81C0290
:100710000398C069F0B9FFE7029A0199D1F80C0279
:100720009043C1F80C02039A9088D168526940EA5C
:100730000140019901EBC201C1F84002039A1088FF
:100740009168526940EA0140019901EBC201C1F888
:100750004402FFE70398C06901281ED1FFE7029A0F
:100760000199D1F80C021043C1F80C02039A908849
:100770001168526940EA0140019901EBC201C1F8D8
:100780004002039A90899168526940EA01400199B8
:1007900001EBC201C1F84402FFE70398806940B948
:1007A000FFE7029A0199D1F804029043C1F80402CC
:1007B00007E0029A0199D1F804021043C1F804023B
:1007C000FFE70398006940B9FFE7029A0199D1F861
:1007D00014029043C1F8140207E0029A0199D1F87B
:1007E00014021043C1F81402FFE70398006A0128BD
:1007F00008D1FFE7029A0199D1F81C021043C1F811
:100800001C02FFE70199D1F8000220F00100C1F8B5
:10081000000200208DF8170008E00499486A40F4AF
:100820008020486201208DF81700FFE79DF817002F
:1008300006B0704781B0009001B0704786B0049058
:10084000039102920193049890F820008DF8030020
:100850009DF80300012806D0FFE79DF80300022859
:1008600040F0D780FFE7039880B9FFE7049800685D
:10087000C068800748B9FFE70499486A40F400104F
:10088000486201208DF81700CCE00FE00498006862
:100890000069800748B9FFE70499486A40F40010EE
:1008A000486201208DF81700BCE0FFE7049800685B
:1008B000039900EB0110D0F8B00100F00400029998
:1008C00088600298806858B9FFE704980068039927
:1008D00000EB0110D0F8B001400D029908600AE069
:1008E00004980068039900EB0110D0F8B001C0082B
:1008F00002994860FFE704980068039900EB011033
:10090000D0F8B00100F002000299C86004980068B5
:10091000039900EB0110D0F8B40100F00F00029928
:10092000086104980068039900EB0110D0F8B40145
:1009300080B2000A0299886104980068039900EB6C
:100940000110D0F8B401000C0299486104980068C5
:10095000039900EB0110D0F8B801019908700498D0
:100960000068039900EB0110D0F8B801000A019962
:10097000487004980068039900EB0110D0F8B801A2
:10098000000C0199887004980068039900EB01102D
:10099000D0F8B801000E0199C87004980068039956
:1009A00000EB0110D0F8BC010199087104980068AF
:1009B000039900EB0110D0F8BC01000A01994871BD
:1009C00004980068039900EB0110D0F8BC01000CFA
:1009D0000199887104980068039900EB0110D0F820
:1009E000BC01000E0199C871039838B9FFE704985B
:1009F0000168C86840F02000C86006E004980168FB
:100A0000086940F020000861FFE700208DF817001A
:100A100008E00499486A40F48020486201208DF87B
:100A20001700FFE79DF8170006B0704780B58AB041
:100A3000099000200890099800684069079009987B
:100A400000684068069009980068806805900998D9
:100A50000068C068049009980068006903900998CC
:100A60000068806902909DF81C00C007002800F013
:100A70009480FFE79DF81400C00758B3FFE709987A
:100A80000168012088609DF814008007002804D5C3
:100A9000FFE7099800F0E0FB1BE09DF81400400719
:100AA000002805D5FFE7089840F4006008900FE0A3
:100AB0009DF814000007002805D5FFE7089840F4CA
:100AC0008050089003E0099800F0C2FBFFE7FFE7C1
:100AD000FFE7FFE79DF81500C00760B3FFE709983F
:100AE00001684FF4807088609DF815008007002829
:100AF00004D5FFE7099800F0B7FB1BE09DF815004F
:100B00004007002805D5FFE7089840F400500890FA
:100B10000FE09DF815000007002805D5FFE70898AD
:100B200040F48040089003E0099800F099FBFFE74B
:100B3000FFE7FFE7FFE79DF81600C00760B3FFE798
:100B4000099801684FF4803088609DF8160080078E
:100B5000002804D5FFE7099800F08EFB1BE09DF804
:100B600016004007002805D5FFE7089840F400402C
:100B700008900FE09DF816000007002805D5FFE754
:100B8000089840F48030089003E0099800F070FB6A
:100B9000FFE7FFE7FFE7FFE7FFE79DF81C0000071F
:100BA000002810D5FFE79DF81000C006002809D5E1
:100BB000FFE7089840F40070089009980168102039
:100BC000C860FFE7FFE79DF81C00400700280FD52D
:100BD000FFE79DF810000007002808D5FFE70998F7
:100BE00001680820C860099800F064FAFFE7FFE791
:100BF0009DF81C00800700280BD5FFE709980068C6
:100C0000C068800720B1FFE7099800F057FAFFE7B6
:100C1000FFE79DF81C004006002810D5FFE79DF86F
:100C20000C00C006002809D5FFE7089840F4806052
:100C300008900998016810200861FFE7FFE79DF818
:100C40001C00800600280FD5FFE79DF80C00000768
:100C5000002808D5FFE7099801680820086109986D
:100C600000F06AFAFFE7FFE79DF81C00C0060028C5
:100C70000BD5FFE7099800680069800720B1FFE7FE
:100C8000099800F05DFAFFE7FFE79DF81E00800776
:100C900000280FD5FFE79DF81800C006002808D5EA
:100CA000FFE70998016810204860099800F086FA6B
:100CB000FFE7FFE79DF81E00C00778B1FFE79DF84A
:100CC00018000007002808D5FFE7099801680820E8
:100CD0004860099800F0D4FAFFE7FFE79DF81D008F
:100CE0000006002840F18D80FFE79DF818004007BE
:100CF000002840F18180FFE79DF81D00C00750B13A
:100D0000FFE79DF80800C00728B1FFE7089840F00A
:100D100001000890FFE79DF81D00800700280BD513
:100D2000FFE79DF808008007002805D5FFE7089831
:100D300040F002000890FFE79DF81D0040070028E2
:100D40000BD5FFE79DF808004007002805D5FFE711
:100D5000089840F004000890FFE79DF81D00000788
:100D6000002848D5FFE79DF8080010F0700F42D02A
:100D7000FFE7029800F0700001460191102814D09E
:100D8000FFE70198202815D0FFE70198302816D0FA
:100D9000FFE70198402817D0FFE70198502818D0A6
:100DA000FFE70198602819D01DE0089840F008007E
:100DB000089019E0089840F01000089014E0089896
:100DC00040F0200008900FE0089840F040000890A4
:100DD0000AE0089840F08000089005E0089840F488
:100DE0008070089000E0FFE709980168886920F0AA
:100DF00070008861FFE7FFE70998016804204860F8
:100E0000FFE7089848B1FFE7089A0999486A104334
:100E100048620998FFF70EFDFFE70AB080BD0000A9
:100E200080B584B00290029820B9FFE701208DF8C8
:100E30000F00E0E0029890F8200020B9FFE7029848
:100E400000F0DEF8FFE702980168086840F0010052
:100E5000086000F08DFF0190FFE70298006840688D
:100E6000C007A8B9FFE700F083FF0199401A0B28DB
:100E70000DD3FFE70299486A40F4003048620299B6
:100E8000052081F8200001208DF80F00B3E0E4E791
:100E900002980168086820F00200086000F068FF0E
:100EA0000190FFE70298006840688007002815D588
:100EB000FFE700F05DFF0199401A0B280DD3FFE713
:100EC0000299486A40F4003048620299052081F88E
:100ED000200001208DF80F008DE0E3E70298007EEE
:100EE000012807D1FFE702980168086840F08000F8
:100EF000086006E002980168086820F08000086039
:100F0000FFE70298407E012807D1FFE702980168B9
:100F1000086840F04000086006E002980168086830
:100F200020F040000860FFE70298807E012807D18A
:100F3000FFE702980168086840F02000086006E0BA
:100F400002980168086820F020000860FFE7029816
:100F5000C07E012807D1FFE702980168086820F0E9
:100F60001000086006E002980168086840F0100070
:100F70000860FFE70298007F012807D1FFE7029889
:100F80000168086840F00800086006E002980168FF
:100F9000086820F008000860FFE70298407F0128F9
:100FA00007D1FFE702980168086840F00400086074
:100FB00006E002980168086820F004000860FFE776
:100FC000029B19685A689868D3F80CC040EA0C0074
:100FD000D3F810C040EA0C005B691843013A104393
:100FE000C861029900204862029A012182F820100B
:100FF0008DF80F00FFE79DF80F0004B080BD0000E2
:1010000080B58CB00B9000200A9009900890079052
:1010100006900B98006846F20041C4F20001884235
:1010200046D1FFE7FFE70020059043F64000C4F2F9
:101030000200016841F000710160006800F000707A
:1010400005900598FFE7FFE70020049043F6300085
:10105000C4F20200016841F008010160006800F07C
:10106000080004900498FFE70320069002210791EE
:10107000002102910891099009200A9040F6004051
:10108000C4F2020006A900F063FC029A1420019049
:10109000114600F005FF019800F0F8FE029A1520B5
:1010A0000390114600F0FCFE039800F0EFFEFFE70E
:1010B0000CB080BD81B0009001B0704780B584B0A5
:1010C00003900398006846F20041C4F20001884290
:1010D00013D1FFE7039840F61812C2F20002029201
:1010E00002F11C030021FFF7A9FB029840F27001F6
:1010F000C2F20001496888471CE00398006846F680
:101100000001C4F20001884213D1FFE7039840F6C2
:101110001812C2F20002019202F11C030021FFF733
:101120008DFB019840F27801C2F2000149688847BE
:10113000FFE7FFE704B080BD81B0009001B07047C9
:1011400080B584B003900398006846F20041C4F271
:101150000001884213D1FFE7039840F63C12C2F227
:101160000002029202F11C030121FFF767FB0298C3
:1011700040F27001C2F20001496888471CE0039800
:10118000006846F60001C4F20001884213D1FFE76F
:10119000039840F63C12C2F20002019202F11C03D5
:1011A0000121FFF74BFB019840F27801C2F20001E8
:1011B00049688847FFE7FFE704B080BD81B0009031
:1011C00001B0704780B584B00290029890F820007A
:1011D00001282FD1FFE70299022081F82000029810
:1011E0000168086820F00100086000F0C1FD01906E
:1011F000FFE7029800684068C007A8B1FFE700F069
:10120000B7FD0199401A0B280DD3FFE70299486AF0
:1012100040F4003048620299052081F82000012046
:101220008DF80F000FE0E4E70299002048628DF886
:101230000F0008E00299486A40F40020486201204B
:101240008DF80F00FFE79DF80F0004B080BD00008F
:1012500081B0009001B0704781B0009001B070473C
:1012600081B0009001B0704781B0009001B070472C
:1012700081B0009001B0704781B0009001B070471C
:1012800081B0009001B0704780B584B002900298A0
:10129000806D019000F06CFD0090029890F8350090
:1012A00002280DD0FFE7029980204865FFE70299E8
:1012B000002081F83400FFE701208DF80F0055E091
:1012C00002980168086820F016000860029801681A
:1012D000486920F0800048610298006C20B9FFE75F
:1012E0000298806C38B1FFE702980168086820F026
:1012F00008000860FFE702980168086820F0010014
:101300000860FFE7029800680068C007C8B1FFE7FF
:1013100000F02EFD0099401A062811D3FFE702992C
:10132000202048650299032081F83500FFE70299E3
:10133000002081F83400FFE703208DF80F0015E04E
:10134000E0E70298C16D3F208840019988600299CA
:10135000012081F83500FFE70299002081F8340070
:10136000FFE7FFE700208DF80F00FFE79DF80F0073
:1013700004B080BD82B00090009890F8350002283B
:1013800007D0FFE700998020486501208DF807000D
:101390000EE00099052081F8350000980168086882
:1013A00020F001000860FFE700208DF80700FFE74C
:1013B0009DF8070002B0704780B586B00590002008
:1013C000039040F20000C2F20000006848F2B5113C
:1013D000C1F64E31A0FB0110800A02900598806D85
:1013E000019001980068049004980599C96DC8405F
:1013F000000700281AD5FFE7059800680068400735
:10140000002812D5FFE705980168086820F004005D
:1014100008600598C16D0820884001998860059989
:10142000486D40F001004865FFE7FFE70498059923
:10143000C96DC840C007A0B1FFE7059800684069C2
:10144000000600280CD5FFE70598C16D01208840F3
:10145000019988600599486D40F002004865FFE7F2
:10146000FFE704980599C96DC8404007002814D5C6
:10147000FFE7059800680068800700280CD5FFE7A3
:101480000598C16D04208840019988600599486DD0
:1014900040F004004865FFE7FFE704980599C96D2F
:1014A000C840C006002847D5FFE7059800680068D7
:1014B000000700283FD5FFE70598C16D1020884040
:1014C00001998860059800680068400300281AD5D3
:1014D000FFE70598006800680003002809D4FFE7CB
:1014E0000598006C20B1FFE70598016C8847FFE77D
:1014F00008E00598806C20B1FFE70598816C88476B
:10150000FFE7FFE716E0059800680068C0050028BF
:1015100007D4FFE705980168086820F00800086014
:10152000FFE70598006C20B1FFE70598016C88473C
:10153000FFE7FFE7FFE7FFE704980599C96DC8409B
:101540008006002840F18D80FFE70598006800685C
:10155000C006002840F18480FFE70598C16D202077
:10156000884001998860059890F83500052834D1A5
:10157000FFE705980168086820F0160008600598E4
:101580000168486920F0800048610598006C20B926
:10159000FFE70598806C38B1FFE705980168086897
:1015A00020F008000860FFE70598C16D3F208840E3
:1015B000019988600599012081F83500FFE70599B8
:1015C000002081F83400FFE70598006D20B1FFE7A7
:1015D0000598016D8847FFE77BE005980068006883
:1015E000400300281AD5FFE705980068006800034B
:1015F000002809D4FFE70598406C20B1FFE7059863
:10160000416C8847FFE708E00598C06B20B1FFE711
:101610000598C16B8847FFE7FFE720E00598006861
:101620000068C005002811D4FFE705980168086824
:1016300020F0100008600599012081F83500FFE7CF
:101640000599002081F83400FFE7FFE70598C06B9B
:1016500020B1FFE70598C16B8847FFE7FFE7FFE789
:10166000FFE70598406DA0B3FFE70598406DC00700
:1016700030B3FFE70599052081F83500059801682A
:10168000086820F001000860FFE70398013003902C
:101690000299884201D9FFE707E0FFE70598006853
:1016A0000068C0070028F0D1FFE70599012081F804
:1016B0003500FFE70599002081F83400FFE7FFE7D8
:1016C0000598C06C20B1FFE70598C16C8847FFE71B
:1016D000FFE706B080BD000080B586B00490002012
:1016E000039000F045FB0290049820B9FFE7012029
:1016F0008DF81700A3E00498406A08B1FFE7FFE700
:101700000499022081F83500FFE70499002081F850
:101710003400FFE704980168086820F001000860C1
:10172000FFE7049800680068C00790B1FFE700F089
:101730001FFB0299401A06280AD3FFE704992020CC
:1017400048650499032081F835008DF8170076E08C
:10175000E7E70498006800680390039848F23F01A7
:10176000CFF2100108400390049900914868D1F825
:1017700008C0CB680A6940EA0C00184310434A6964
:1017800010438A691043CA691043096A01430398E8
:10179000084303900498406A042808D1FFE704999D
:1017A000C86A096B0143039808430390FFE7039855
:1017B00004990968086004980068406903900398D8
:1017C00020F0070003900498416A039808430390AF
:1017D0000498406A04281AD1FFE70498816A0398A4
:1017E000084303900498C06A80B1FFE70498FEF7AD
:1017F000A5FE50B1FFE704994020486504990120F7
:1018000081F835008DF8170019E0FFE7FFE703982E
:101810000499096848610498FEF764FE01900498F1
:10182000C16D3F2088400199886004990020486577
:10183000049A012182F835108DF81700FFE79DF812
:10184000170006B080BD000080B588B006900591F5
:101850000492039300208DF80B000698806D019090
:10186000FFE7069890F83400012804D1FFE7022032
:101870008DF81F0045E00699012081F83400FFE74C
:10188000FFE7069890F8350001282BD1FFE706996D
:10189000022081F8350006990020486506980599D0
:1018A000049A039BFEF7C2FE0698C16D3F20884054
:1018B0000199886006980168086840F01600086081
:1018C0000698006C38B1FFE706980168086840F098
:1018D00008000860FFE706980168086840F001000A
:1018E000086009E0FFE70699002081F83400FFE76F
:1018F00002208DF80B00FFE79DF80B008DF81F000C
:10190000FFE79DF81F0008B080BD000080B584B0DF
:10191000039000F02DFA0290039801900198013095
:1019200048B1FFE740F20400C2F2000001780198DC
:1019300008440190FFE7FFE700F01AFA0299401A05
:101940000199884201D2FFE7F6E704B080BD0000AC
:1019500090B00F900E9100200C900B900A900D907B
:10196000FFE70D980F2800F2E881FFE70D990120AD
:1019700088400C900E9800680C9908400B900B98CA
:101980000C99884240F0D481FFE70E98406800F03F
:101990000300012807D0FFE70E98406800F003001D
:1019A00002282FD1FFE70F9880680A900D98410018
:1019B000032000FA01F10A9888430A900E98C06843
:1019C0000D99490000FA01F10A9808430A900A9813
:1019D0000F9988600F9840680A900D99012000FACD
:1019E00001F10A9888430A900E984068C0F30010ED
:1019F0000D9900FA01F10A9808430A900A980F9984
:101A00004860FFE70E98406800F00300032818D0F4
:101A1000FFE70F98C0680A900D984100032000FA74
:101A200001F10A9888430A900E9880680D99490040
:101A300000FA01F10A9808430A900A980F99C860C1
:101A4000FFE70E98406800F00300022826D1FFE768
:101A50000F980D996FF0030202EA51010844006AE1
:101A60000A900D9800F0070081000F2000FA01F1A4
:101A70000A9888430A900E9800690D9901F00701B1
:101A8000890000FA01F10A9808430A900A980F9910
:101A90000D9B02EA530211440862FFE70F980068A9
:101AA0000A900D984100032000FA01F10A9888433A
:101AB0000A900E98406800F003000D99490000FA62
:101AC00001F10A9808430A900A980F9908600E9845
:101AD00080798007002800F02A81FFE7FFE70020D7
:101AE000099043F64400C4F20200016841F48041C9
:101AF0000160006800F4804009900998FFE70D98A4
:101B000020F0030043F60801C4F2010140580A9096
:101B10000D9800F0030081000F2000FA01F10A98EF
:101B200088430A900F980021C4F20201884203D131
:101B3000FFE7002008907AE00F9840F20041C4F2DD
:101B40000201884203D1FFE7012007906CE00F9863
:101B500040F60001C4F20201884203D1FFE70220EF
:101B600006905EE00F9840F60041C4F20201884200
:101B700003D1FFE70320059050E00F9841F20001E8
:101B8000C4F20201884203D1FFE70420049042E03E
:101B90000F9841F20041C4F20201884203D1FFE7ED
:101BA0000520039034E00F9841F60001C4F20201D1
:101BB000884203D1FFE70620029026E00F9841F605
:101BC0000041C4F20201884203D1FFE707200190DF
:101BD00018E00F9842F20001C4F20201884203D1DA
:101BE000FFE7082000900AE00F9942F20042C4F299
:101BF00002020A20914208BF09200090FFE70098E6
:101C00000190FFE701980290FFE702980390FFE739
:101C100003980490FFE704980590FFE70598069065
:101C2000FFE706980790FFE707980890FFE70898F6
:101C3000C0B20D9901F00301890000FA01F10A9880
:101C400008430A900A980D9921F0030143F608020F
:101C5000C4F20102885043F60840C4F20100006853
:101C60000A900B990A9888430A900E988079C006CA
:101C7000002805D5FFE70B990A9808430A90FFE76B
:101C80000A9843F60841C4F20101086043F60C408B
:101C9000C4F2010000680A900B990A9888430A90E0
:101CA0000E9880798006002805D5FFE70B990A98E1
:101CB00008430A90FFE70A9843F60C41C4F2010179
:101CC000086043F60440C4F2010000680A900B99D2
:101CD0000A9888430A900E9880798007002805D5D5
:101CE000FFE70B990A9808430A90FFE70A9843F622
:101CF0000441C4F20101086043F60040C4F201004F
:101D000000680A900B990A9888430A900E98807987
:101D1000C00728B1FFE70B990A9808430A90FFE72C
:101D20000A9843F60041C4F201010860FFE7FFE7AB
:101D3000FFE70D9801300D9013E610B070470000DA
:101D400082B00190ADF802108DF801209DF80100DD
:101D500028B1FFE7BDF802000199886105E0BDF8F0
:101D60000200000401998861FFE702B0704700009B
:101D700040F6E820C2F200000068704740F204001C
:101D8000C2F20000027840F6E821C2F200010868C1
:101D9000104408607047000080B543F60041C4F26B
:101DA0000201086840F400700860086840F4806030
:101DB0000860086840F480700860032000F08AF82A
:101DC0000F2000F005F800F03BF8002080BD000077
:101DD00080B582B0009040F20000C2F200000068BE
:101DE00040F20401C2F200010A784FF47A71B1FBAB
:101DF000F2F1B0FBF1F000F005FE20B1FFE70120A9
:101E00008DF8070018E000980F280DD8FFE700991B
:101E10004FF0FF30002200F043F8009840F2080134
:101E2000C2F20001086003E001208DF8070003E022
:101E300000208DF80700FFE79DF8070002B080BD85
:101E400082B0FFE70020019043F64400C4F2020094
:101E5000016841F480410160006800F48040019015
:101E60000198FFE7FFE70020009043F64000C4F22E
:101E70000200016841F080510160006800F080506C
:101E800000900098FFE702B07047000080B582B074
:101E90008DF807009DF9070002F042FD02B080BDF9
:101EA00080B586B08DF8170004910392002002904F
:101EB00002F04EFD02909DF91700019002980499DE
:101EC000039A01F057FB0146019802F049FD06B064
:101ED00080BD000080B582B00190019802F062FDE3
:101EE00002B080BD80B584B000200290FFE70020E2
:101EF000019043F64000C4F20200016841F08051B5
:101F00000160006800F0805001900198FFE74021D7
:101F1000C4F20E2101200860FFF72AFF0290FFE7BC
:101F200047F20400C4F20000006800F48030B0F50D
:101F3000803F0DD0FFE7FFF71BFF0299401AB0F575
:101F40007A7F04D9FFE703208DF80F0025E0E7E74B
:101F50004421C4F20E2101200860FFF709FF02901E
:101F6000FFE747F20400C4F20000006800F400300C
:101F7000B0F5003F0DD0FFE7FFF7FAFE0299401AD7
:101F8000B0F57A7F04D9FFE703208DF80F0004E055
:101F9000E7E700208DF80F00FFE79DF80F0004B081
:101FA00080BD000080B584B002900191029820B9F4
:101FB000FFE701208DF80F0021E1019843F6004171
:101FC000C4F20201096801F00F01884212D9FFE74B
:101FD000019943F60040C4F202000170006800F06D
:101FE0000F000199884204D0FFE701208DF80F000F
:101FF00005E1FFE702980078800700282AD5FFE76F
:10200000029800784007002809D5FFE743F6080149
:10201000C4F20201086840F4E0500860FFE702984B
:1020200000780007002809D5FFE743F60801C4F24D
:102030000201086840F460400860FFE743F60801C9
:10204000C4F20201086820F0F000029A926810437E
:102050000860FFE702980078C00700286ED0FFE70D
:1020600002984068012811D1FFE743F60000C4F24E
:102070000200006800F400310020B0EB514F04D1A1
:10208000FFE701208DF80F00B9E02CE002984068CE
:10209000022805D0FFE702984068032811D1FFE726
:1020A00043F60000C4F20200006800F00071002056
:1020B000B0EB516F04D1FFE701208DF80F009EE0D7
:1020C00010E043F60000C4F20200006800F00201D4
:1020D0000020B0EB510F04D1FFE701208DF80F0075
:1020E0008DE0FFE7FFE743F60801C4F2020108684C
:1020F00020F00300029A526810430860FFF738FE90
:102100000090FFE743F60800C4F20200006800F008
:102110000C0002994968B0EB810F0ED0FFE7FFF782
:1021200027FE0099401A41F28931884204D3FFE723
:1021300003208DF80F0062E0E4E7FFE7019843F623
:102140000041C4F20201096801F00F01884212D275
:10215000FFE7019943F60040C4F2020001700068F5
:1021600000F00F000199884204D0FFE701208DF8AC
:102170000F0044E0FFE702980078400700280CD5E4
:10218000FFE743F60801C4F20201086820F4E050BA
:10219000029AD26810430860FFE7029800780007AF
:1021A00000280DD5FFE743F60801C4F202010868D4
:1021B00020F46040029A126940EAC2000860FFE71A
:1021C00000F04CF843F60801C4F202010968C9B2F4
:1021D0000A0944F64231C0F60001895CC84040F269
:1021E0000001C2F20001086040F20800C2F20000E3
:1021F0000068FFF7EDFD00208DF80F00FFE79DF868
:102200000F0004B080BD000040F20000C2F20000E8
:102210000068704780B5FFF7F7FF43F60801C4F286
:1022200002010968C1F3822244F65231C0F600016E
:10223000895CC84080BD000080B5FFF7E5FF43F62C
:102240000801C4F20201096889B24A0B44F652310E
:10225000C0F60001895CC84080BD000080B586B032
:102260000020059004900390029043F60800C4F209
:102270000200006800F00C000146019140B1FFE748
:10228000019804280AD0FFE7019808280CD04FE0F5
:1022900042F20040C0F2F40002904FE041F60030FC
:1022A000C0F2B700029049E043F60400C4F2020015
:1022B000016801F03F01059100684002002813D534
:1022C000FFE743F60400C4F202000068C0F3881080
:1022D00041F60031C0F2B701A0FB0101059A0023CD
:1022E000FDF7ECFF049012E043F60400C4F2020094
:1022F0000068C0F3881042F20041C0F2F401A0FB74
:102300000101059A0023FDF7D9FF0490FFE743F68A
:102310000400C4F20200006800F44031022000EB27
:10232000D130039004980399B0FBF1F0029005E0DE
:1023300042F20040C0F2F4000290FFE7029806B0BB
:1023400080BD000080B586B00490049820B9FFE7F6
:1023500001208DF8170050E304980078C00700288A
:1023600000F0A580FFE743F60800C4F20200006811
:1023700000F00C00042813D0FFE743F60800C4F275
:102380000200006800F00C0008281ED1FFE743F6A9
:102390000400C4F2020000684002002815D5FFE7DF
:1023A00043F60000C4F20200006800F4003100208F
:1023B000B0EB514F08D0FFE70498406820B9FFE721
:1023C00001208DF8170018E370E0FFE704984068DB
:1023D000B0F5803F09D1FFE743F60001C4F20201E6
:1023E000086840F48030086020E004984068B0F548
:1023F000A02F0DD1FFE743F60001C4F202010868E7
:1024000040F480200860086840F4803008600CE0E8
:1024100043F60001C4F20201086820F4803008602D
:10242000086820F480200860FFE7FFE7FFE70498D2
:102430004068E8B1FFE7FFF79BFC0390FFE743F636
:102440000000C4F20200006800F400310020B0EB8C
:10245000514F0CD1FFE7FFF78BFC0399401A652819
:1024600004D3FFE703208DF81700C6E2E7E71CE07E
:10247000FFF77EFC0390FFE743F60000C4F2020082
:10248000006800F400310020B0EB514F0CD0FFE7A2
:10249000FFF76EFC0399401A652804D3FFE7032079
:1024A0008DF81700A9E2E7E7FFE7FFE7FFE70498E9
:1024B00000788007002840F19680FFE743F6080087
:1024C000C4F20200006810F00C0F13D0FFE743F6CF
:1024D0000800C4F20200006800F00C0008282CD1AB
:1024E000FFE743F60400C4F202000068400200283F
:1024F00023D4FFE743F60000C4F20200006800F0B6
:1025000002010020B0EB510F09D0FFE70498C0682A
:10251000012804D0FFE701208DF817006DE243F693
:102520000001C4F20201086820F0F800049A126960
:1025300040EAC2000860FFE754E00498C06870B346
:10254000FFE70021C4F2472101200860FFF710FCDB
:102550000390FFE743F60000C4F20200006800F0B9
:1025600002010020B0EB510F0CD1FFE7FFF700FC98
:102570000399401A032804D3FFE703208DF81700BE
:102580003BE2E7E743F60001C4F20201086820F0ED
:10259000F800049A126940EAC200086021E00021B4
:1025A000C4F2472100200860FFF7E2FB0390FFE739
:1025B00043F60000C4F20200006800F002010020AF
:1025C000B0EB510F0CD0FFE7FFF7D2FB0399401A95
:1025D000032804D3FFE703208DF817000DE2E7E797
:1025E000FFE7FFE7FFE704980078000700284BD5D6
:1025F000FFE70498406918B3FFE740F68061C4F232
:10260000472101200860FFF7B3FB0390FFE743F683
:102610007400C4F20200006800F002010020B0EB78
:10262000510F0CD1FFE7FFF7A3FB0399401A0328D2
:1026300004D3FFE703208DF81700DEE1E7E722E08F
:1026400040F68061C4F2472100200860FFF790FB4C
:102650000390FFE743F67400C4F20200006800F044
:1026600002010020B0EB510F0CD0FFE7FFF780FB19
:102670000399401A032804D3FFE703208DF81700BD
:10268000BBE1E7E7FFE7FFE7049800784007002891
:1026900040F1CE80FFE700208DF8070043F64000B0
:1026A000C4F202000068C000002815D4FFE7FFE76D
:1026B0000020009043F64000C4F20200016841F09F
:1026C00080510160006800F0805000900098FFE7A2
:1026D00001208DF80700FFE747F20000C4F2000078
:1026E0000068C005002822D4FFE747F20001C4F2C9
:1026F0000001086840F480700860FFF739FB039020
:10270000FFE747F20000C4F200000068C00500289F
:102710000CD4FFE7FFF72CFB0399401A032804D3DE
:10272000FFE703208DF8170067E1EAE7FFE7FFE71F
:1027300004988068012809D1FFE743F67001C4F2CC
:102740000201086840F0010008601FE004988068FA
:1027500005280DD1FFE743F67001C4F202010868B5
:1027600040F004000860086840F0010008600CE0D8
:1027700043F67001C4F20201086820F0010008600D
:10278000086820F004000860FFE7FFE7FFE704980F
:102790008068F8B1FFE7FFF7EBFA0390FFE743F635
:1027A0007000C4F20200006800F002010020B0EBEB
:1027B000510F0ED1FFE7FFF7DBFA0399401A41F200
:1027C0008931884204D3FFE703208DF8170014E114
:1027D000E5E71EE0FFF7CCFA0390FFE743F6700051
:1027E000C4F20200006800F002010020B0EB510FBB
:1027F0000ED0FFE7FFF7BCFA0399401A41F2893186
:10280000884204D3FFE703208DF81700F5E0E5E7E1
:10281000FFE79DF80700012809D1FFE743F64001D3
:10282000C4F20201086820F080500860FFE7FFE76B
:1028300004988069002800F0DC80FFE743F6080078
:10284000C4F20200006800F00C00082800F0858047
:10285000FFE70498806902285CD1FFE76021C4F299
:10286000472100200860FFF783FA0390FFE743F653
:102870000000C4F20200006800F000710020B0EB1C
:10288000516F0CD0FFE7FFF773FA0399401A032842
:1028900004D3FFE703208DF81700AEE0E7E70499C3
:1028A000C869D1F820C04B6A8A6A40EA0C0040EA45
:1028B0008310D2034FF6FF739A43A2F58032104380
:1028C000C96A40EA016043F60401C4F202010860EB
:1028D0006021C4F2472101200860FFF749FA039004
:1028E000FFE743F60000C4F20200006800F0007148
:1028F0000020B0EB516F0CD1FFE7FFF739FA0399D5
:10290000401A032804D3FFE703208DF8170074E072
:10291000E7E721E06021C4F2472100200860FFF7CB
:1029200027FA0390FFE743F60000C4F202000068B4
:1029300000F000710020B0EB516F0CD0FFE7FFF703
:1029400017FA0399401A032804D3FFE703208DF8F0
:10295000170052E0E7E7FFE74AE0049880690128A2
:1029600004D1FFE701208DF8170046E043F604008C
:10297000C4F202000068029004988069012831D0F6
:10298000FFE7029800F480000499C969884229D1C0
:10299000FFE7029800F03F000499096A884221D1BC
:1029A000FFE7029847F6C07108400499496AB0EB06
:1029B000811F17D1FFE7029800F440300499896A1B
:1029C000C9034FF6FF729143A1F58031884209D1C6
:1029D000FFE7029800F070600499C96AB0EB016FDC
:1029E00004D0FFE701208DF8170006E0FFE7FFE7BE
:1029F000FFE700208DF81700FFE79DF8170006B0ED
:102A000080BD000080B582B00190019800F0ECFD1F
:102A100002B080BD80B586B004900391ADF80A2065
:102A2000049890F83E0020285BD1FFE7039820B17E
:102A3000FFE7BDF80A0020B9FFE701208DF8170075
:102A400053E0FFE7049890F83C00012804D1FFE729
:102A500002208DF8170048E00499012081F83C001D
:102A6000FFE7FFE704990120086304980399BDF884
:102A70000A2001F0E3F88DF809009DF8090058BB21
:102A8000FFE70498006B012821D1FFE7FFE7002052
:102A900001900498006800680190049800684068FC
:102AA00001900198FFE7FFE7FFE70498006850E80E
:102AB000030F40F010000090FFE7009904980268AF
:102AC00042E803100028F0D1FFE7FFE703E0012010
:102AD0008DF80900FFE7FFE79DF809008DF8170062
:102AE00003E002208DF81700FFE79DF8170006B0FD
:102AF00080BD000080B58AB00990ADF82210099819
:102B0000006841F20001C4F20101884210D1FFE7E0
:102B100040F29801C2F2000107914868CA68098929
:102B20009047079A099851681289FFF773FFB5E03B
:102B30000998006844F20041C4F20001884210D1B3
:102B4000FFE740F2A811C2F2000106914868CA6886
:102B500009899047069A099851681289FFF75AFF28
:102B60009BE00998006844F60001C4F20001884225
:102B700010D1FFE740F2B821C2F200010591486888
:102B8000CA6809899047059A099851681289FFF720
:102B900041FF81E00998006844F60041C4F2000159
:102BA000884210D1FFE740F2C831C2F2000104911F
:102BB0004868CA6809899047049A09985168128937
:102BC000FFF728FF67E00998006845F20001C4F2AA
:102BD0000001884210D1FFE740F2D841C2F2000163
:102BE00003914868CA6809899047039A099851680F
:102BF0001289FFF70FFF4DE00998006841F200418C
:102C0000C4F20101884210D1FFE740F2E851C2F25C
:102C1000000102914868CA6809899047029A099898
:102C200051681289FFF7F6FE33E00998006847F60D
:102C30000001C4F20001884210D1FFE740F2F861C0
:102C4000C2F2000101914868CA6809899047019A57
:102C5000099851681289FFF7DDFE19E009980068AC
:102C600047F60041C4F20001884210D1FFE740F668
:102C70000801C2F2000100914868CA6809899047BA
:102C8000009A099851681289FFF7C4FEFFE7FFE731
:102C9000FFE7FFE7FFE7FFE7FFE7FFE70AB080BDD9
:102CA00081B0009001B0704780B592B0119011983A
:102CB00000680068109011980068C0680F90119823
:102CC000006840690E9000200D900C90109800F064
:102CD0000F000D900D9888B9FFE79DF84000800621
:102CE00000280AD5FFE79DF83C008006002804D59F
:102CF000FFE7119800F052FEE3E1FFE70D9800288E
:102D000000F0C280FFE79DF83800C00738B9FFE740
:102D1000BDF83C0010F4907F00F0B680FFE79DF80E
:102D20004000C00758B1FFE79DF83D00C00730B133
:102D3000FFE71199086C40F001000864FFE79DF877
:102D40004000400700280BD5FFE79DF83800C0077A
:102D500030B1FFE71199086C40F002000864FFE70A
:102D60009DF84000800700280BD5FFE79DF838004C
:102D7000C00730B1FFE71199086C40F00400086407
:102D8000FFE79DF840000007002811D5FFE79DF8F8
:102D90003C008006002805D4FFE79DF83800C007F6
:102DA00030B1FFE71199086C40F008000864FFE7B4
:102DB0001198006C002866D0FFE79DF8400080065F
:102DC00000280AD5FFE79DF83C008006002804D5BE
:102DD000FFE7119800F0E2FDFFE7119800684069F5
:102DE000C0F380100C901198006C0007002804D4E8
:102DF000FFE70C9800283ED0FFE7119800F054FD43
:102E0000119800684069400600282FD5FFE7FFE7CA
:102E1000FFE71198006850E8050F20F040000B9084
:102E2000FFE70B991198026842E805100028F0D1DD
:102E3000FFE7FFE71198806B98B1FFE71198816B6E
:102E400043F25960C0F6000008651198806BFEF7E8
:102E500091FA28B1FFE71198806B016D8847FFE771
:102E600003E01198FFF71CFFFFE703E01198FFF75D
:102E700017FFFFE706E01198FFF712FF11990020F6
:102E80000864FFE7FFE71CE11198006B012840F0A0
:102E9000F880FFE79DF84000C006002840F1F1806F
:102EA000FFE79DF83C00C006002840F1EA80FFE7FC
:102EB000FFE700200A901198006800680A901198B6
:102EC000006840680A900A98FFE711980068406916
:102ED000400600287ED5FFE71198806B00684068A7
:102EE000ADF82600BDF82600002872D0FFE7BDF837
:102EF00026001199898D88426BDAFFE7BDF826001C
:102F00001199C8851198806BC069B0F5807F58D041
:102F1000FFE7FFE7FFE71198006850E8030F20F490
:102F200080700890FFE708991198026842E8031042
:102F30000028F0D1FFE7FFE7FFE7FFE711980068FF
:102F400050E8050F20F001000790FFE7079911985E
:102F5000026842E805100028F0D1FFE7FFE7FFE72D
:102F6000FFE71198006850E8050F20F04000069038
:102F7000FFE706991198026842E805100028F0D191
:102F8000FFE7FFE71199202081F83E00119900200A
:102F90000863FFE7FFE71198006850E8030F20F08F
:102FA00010000590FFE705991198026842E80310A8
:102FB0000028F0D1FFE7FFE71198806BFEF764F976
:102FC000FFE71198818DC28D891A89B2FFF792FDB2
:102FD000FFE776E01199888DC98D401AADF812008F
:102FE0001198C08D00284BD0FFE7BDF812000028D3
:102FF00046D0FFE7FFE7FFE71198006850E8030FAE
:1030000020F490700390FFE703991198026842E85A
:1030100003100028F0D1FFE7FFE7FFE7FFE7119873
:10302000006850E8050F20F001000290FFE70299C8
:103030001198026842E805100028F0D1FFE7FFE789
:103040001199202081F83E00119900200863FFE7C4
:10305000FFE71198006850E8030F20F0100001907E
:10306000FFE701991198026842E803100028F0D1A7
:10307000FFE7FFE71198BDF81210FFF73BFDFFE7F0
:103080001FE09DF84000000600280AD5FFE79DF8E4
:103090003C000006002804D5FFE7119800F05AFE16
:1030A0000FE09DF84000400600280AD5FFE79DF894
:1030B0003C004006002804D5FFE7119800F03EFCD4
:1030C000FFE712B080BD000080B582B0009000988C
:1030D00020B9FFE701208DF807003EE000988069E5
:1030E00008B1FFE700E0FFE7009890F83D0040B925
:1030F000FFE70099002081F83C00009800F032F8CA
:10310000FFE70099242081F83D0000980168C86815
:1031100020F40050C860009800F0F2FC00980168AC
:10312000086920F49040086100980168486920F01F
:103130002A00486100980168C86840F40050C860DF
:10314000009900200864009A202182F83D10009A1E
:1031500082F83E108DF80700FFE79DF8070002B0E7
:1031600080BD000080B58CB00B9000200A900990C3
:103170000890079006900B98006844F20041C4F252
:103180000001884240F09280FFE7FFE700200590B1
:1031900043F64000C4F20200016841F400310160CE
:1031A000006800F4003005900598FFE7FFE7002075
:1031B000049043F63000C4F20200016841F00801B7
:1031C0000160006800F0080004900498FFE76020A8
:1031D000069002200790002002900890032009909A
:1031E00007200A9040F60040C4F2020006A9FEF74C
:1031F000AFFB029940F68810C2F20000039046F23D
:103200008802C4F2020202604FF0006242608160F4
:10321000C1604FF48062026141618161C1610162FC
:103220004162FEF759FA18B1FFE7FDF729FAFFE707
:10323000FFE70B9840F68811C2F2000181630B98FA
:103240008863FFE740F6E810C2F20000019046F202
:10325000A001C4F2020101604FF000614160402111
:1032600081600021C1604FF480620261416181612F
:10327000C16101624162FEF72FFA18B1FFE7FDF765
:10328000FFF9FFE7FFE70B9840F6E811C2F20001F3
:1032900041630B988863FFE72620009000221146C7
:1032A000FEF7FEFD0098FEF7F1FDFFE70CB080BDD4
:1032B00081B0009001B0704781B0009001B07047BC
:1032C00080B586B004900391ADF80A20049890F878
:1032D0003D00202874D1FFE7039820B1FFE7BDF837
:1032E0000A0020B9FFE701208DF817006CE0FFE726
:1032F000049890F83C00012804D1FFE702208DF8E3
:10330000170061E00499012081F83C00FFE7FFE726
:10331000039804990862BDF80A0004998884BDF8EE
:103320000A000499C884049900200864049A2121A1
:1033300082F83D1004994A6B43F61501C0F600016E
:10334000D16304994A6B43F69101C0F60001116400
:1033500004994A6B43F27961C0F60001D164049983
:10336000496B086503A8019004980268406B0199B5
:1033700009680432BDF80A30FEF766FA049801685D
:103380006FF040000860FFE70499002081F83C00DE
:10339000FFE7FFE7FFE70498006850E8050F40F0FB
:1033A00080000090FFE700990498026842E8051049
:1033B0000028F0D1FFE7FFE700208DF8170003E0B9
:1033C00002208DF81700FFE79DF8170006B080BDBA
:1033D00081B0009001B0704781B0009001B070479B
:1033E000FFE7FEE780B582B040F66010C2F2000051
:1033F000019046F20041C4F20001016009214160E0
:1034000000218160C1604FF4803202614FF480126C
:1034100042610176012242768176C1760177417759
:10342000FDF7FEFC18B1FFE7FDF72AF9FFE702B050
:1034300080BD000080B584B0FFE70020039043F614
:103440003000C4F20200016841F40011016000681C
:1034500000F4001003900398FFE710200090002272
:1034600001921146FEF71CFD0098FEF70FFD019A30
:10347000112002901146FEF713FD0298FEF706FD9B
:1034800004B080BD80B58CB000200B900A900990EC
:1034900008900790FFE70020069043F63000C4F242
:1034A0000200016841F001010160006800F00100C4
:1034B00006900698FFE7FFE70020059043F63000EE
:1034C000C4F20200016841F008010160006800F0E8
:1034D000080005900598FFE7FFE70020049043F6F9
:1034E0003000C4F20200016841F080010160006810
:1034F00000F0800004900498FFE741F60040C4F219
:10350000020003903C21019100220292FEF718FC78
:10351000019A0299039807920122089202220992C5
:103520000A9107A9FEF714FA0CB080BD80B582B0ED
:1035300040F64820C2F20000019044F20041C4F27B
:10354000000101604FF4E131416000218160C16000
:1035500001610C2242618161C161FFF7B5FD18B1C3
:10356000FFE7FDF78DF8FFE702B080BDFFE7FEE75C
:10357000FFE7FEE788B0079006910592079800F0F4
:10358000070004900498C0F10700052803D3FFE763
:103590000420019004E00498C0F107000190FFE7C7
:1035A0000198039004980430062803D8FFE7002010
:1035B000009003E0049803380090FFE70098029021
:1035C00006980399012202FA01F101390840029B91
:1035D000984005999A40013A1140084308B0704755
:1035E000704700007047000080B582B000900098DE
:1035F0000138B0F1807F03D3FFE70120019019E08B
:10360000009801384EF21401CEF2000108604FF02C
:10361000FF300F2101F0A4F94EF21801CEF20001A3
:10362000002008604EF21002CEF200020721116065
:103630000190FFE7019802B080BD000080B5FEF761
:103640009DFB80BD4EF68851CEF20001086840F423
:10365000700008607047000080B582B0019001984A
:10366000806B009000990020C8850099C88400985C
:10367000FFF716FB02B080BD80B584B00390002038
:1036800002900398806B0190019800684069C0B275
:10369000C0090290019890F83D0021280AD1FFE767
:1036A000029838B1FFE701990020C884019800F022
:1036B00059F9FFE7019800684069C0F38010029053
:1036C000019890F83E0022280AD1FFE7029838B10D
:1036D000FFE701990020C885019800F0E5F8FFE7B1
:1036E0000199086C40F0100008640198FFF7D8FABF
:1036F00004B080BD80B586B005900598806B0490BD
:10370000059800680068C00500285AD4FFE70499AE
:103710000020C885FFE7FFE70498006850E8030F22
:1037200020F480700390FFE703990498026842E850
:1037300003100028F0D1FFE7FFE7FFE7FFE7049859
:10374000006850E8050F20F001000290FFE70299A1
:103750000498026842E805100028F0D1FFE7FFE76F
:10376000FFE7FFE70498006850E8050F20F04000ED
:103770000190FFE701990498026842E805100028CB
:10378000F0D1FFE7FFE70499202081F83E0004987C
:10379000006B012814D1FFE7FFE7FFE704980068FA
:1037A00050E8030F20F010000090FFE70099049804
:1037B000026842E803100028F0D1FFE7FFE7FFE7C7
:1037C000FFE70498006B012805D1FFE70498818D7D
:1037D000FFF790F903E00498FFF76AFDFFE706B0F2
:1037E00080BD000080B582B001900198806B009090
:1037F0000098006B012806D1FFE70098818D4908E9
:10380000FFF778F903E00098FFF756FDFFE702B0F5
:1038100080BD000080B584B003900398806B029057
:10382000039800680068C00500282AD4FFE70299C1
:103830000020C884FFE7FFE70298006850E8050F02
:1038400020F080000190FFE701990298026842E8A9
:1038500005100028F0D1FFE7FFE7FFE7FFE7029838
:10386000006850E8030F40F040000090FFE7009927
:103870000298026842E803100028F0D1FFE7FFE752
:1038800003E00298FFF7A4FDFFE704B080BD00004D
:1038900080B582B001900198806B00900098FFF78E
:1038A0009BFD02B080BD000084B00390FFE7FFE7FE
:1038B0000398006850E8030F20F490700290FFE72F
:1038C00002990398026842E803100028F0D1FFE74C
:1038D000FFE7FFE7FFE70398006850E8050F20F0D7
:1038E00001000190FFE701990398026842E8051082
:1038F0000028F0D1FFE7FFE70398006B012814D1FF
:10390000FFE7FFE7FFE70398006850E8030F20F0A8
:1039100010000090FFE700990398026842E8031046
:103920000028F0D1FFE7FFE7FFE70399202081F8A7
:103930003E0003990020086304B0704780B582B050
:10394000019001980168C86820F04000C8600199A2
:10395000202081F83D000198FFF73AFD002002B0D9
:1039600080BD000082B00190FFE7FFE7019800688A
:1039700050E8030F20F0C0000090FFE70099019885
:10398000026842E803100028F0D1FFE7FFE7019941
:10399000202081F83D0002B07047000080B586B05D
:1039A0000490049890F83E00222840F0A180FFE7A0
:1039B00004988068B0F5805F15D1FFE7049800692E
:1039C00088B9FFE7002003900498806A0290049869
:1039D000006840686FF35F20029908800499886A44
:1039E0000230886225E00498806A039000200290EB
:1039F00004988068B0F5805F08D0FFE7049880687D
:103A000050B9FFE70498006930B9FFE704980068EF
:103A100040680399087007E004980068406800F067
:103A20007F0003990870FFE70499886A0130886273
:103A3000FFE70499C88D0138C8850004002853D1D8
:103A4000FFE704980168C86820F02000C860049867
:103A50000168C86820F48070C860049801684869EB
:103A600020F0010048610499202081F83E0004986C
:103A7000006B012830D1FFE7049900200863FFE7BD
:103A8000FFE70498006850E8030F20F01000019051
:103A9000FFE701990498026842E803100028F0D17A
:103AA000FFE7FFE7049800680068C00600280ED50D
:103AB000FFE7FFE70020009004980068006800908E
:103AC00004980068406800900098FFE7FFE70498BA
:103AD000818DFFF70FF803E00498FFF7E9FBFFE79C
:103AE00000208DF8170007E000208DF8170003E094
:103AF00002208DF81700FFE79DF8170006B080BD83
:103B000080B586B0059005980068006920F44050A3
:103B1000059A1168D26810430861059988680B6995
:103B20004A69C9691843104308430490059800681E
:103B3000C06849F20C6188430499084305990968F3
:103B4000C86005980068406920F44070059A1168C3
:103B50009269104348610598006841F20001C4F27F
:103B60000101884209D0FFE70598006841F2004151
:103B7000C4F20101884204D1FFE7FEF75DFB039028
:103B800003E0FEF747FB0390FFE70598C069B0F537
:103B9000004F29D1FFE703981921A0FB0101059AE5
:103BA0001368029353685A00DB0FFCF787FB0299F6
:103BB000864648F21F53C5F2EB13AEFB03204209C1
:103BC00010014FF0640C02FB1CEC322202EBCC0221
:103BD000A2FB0332F82303EA521300EB4300C2F3C3
:103BE00042121044886026E003981921A0FB0101CD
:103BF000059A1368019353689A009B0FFCF75EFBCC
:103C00000199844648F21F52C5F2EB12ACFB023018
:103C10004309642003FB10CC322000EB0C10A0FB06
:103C20000202F02000EA521000EB0310C2F343122C
:103C300010448860FFE706B080BD000080B588B002
:103C400007900691ADF81620069807998862BDF88E
:103C5000160007998885079900200864079A222191
:103C600082F83E1007998A6B43F2F561C0F60001B5
:103C7000D16307998A6B43F2E571C0F600011164C4
:103C800007998A6B43F27961C0F60001D164079904
:103C9000896B086506A8049007980168806B043159
:103CA000049A1268BDF81630FDF7CEFDFFE700203C
:103CB00003900798006800680390079800684068C0
:103CC00003900398FFE7FFE70799002081F83C0085
:103CD000FFE707980069A0B1FFE7FFE7FFE7079854
:103CE000006850E8030F40F480700290FFE70299EB
:103CF0000798026842E803100028F0D1FFE7FFE7C9
:103D0000FFE7FFE7FFE70798006850E8050F40F07E
:103D100001000190FFE701990798026842E8051049
:103D20000028F0D1FFE7FFE7FFE7FFE7079800680B
:103D300050E8050F40F040000090FFE70099079819
:103D4000026842E805100028F0D1FFE7FFE70020F5
:103D500008B080BD83B00190019890F83D00212803
:103D60003AD1FFE701988068B0F5805F13D1FFE793
:103D70000198006978B9FFE70198006A00900098FF
:103D800000886FF35F200199096848600199086A0B
:103D90000230086208E0019A106A411C1162007842
:103DA000019909684860FFE70199C88C0138C88407
:103DB000000468B9FFE701980168C86820F0800036
:103DC000C86001980168C86840F04000C860FFE71B
:103DD00000208DF80B0003E002208DF80B00FFE7B8
:103DE0009DF80B0003B0704780B540F64820C2F242
:103DF0000000FEF759FF80BDFFE7FEE780B500F049
:103E0000EFFD80BD80B582B08DF807009DF80720DA
:103E100041F60040C4F202001021FDF791FF02B00C
:103E200080BD000080B582B08DF807009DF80720A6
:103E300041F60040C4F202002021FDF781FF02B0EC
:103E400080BD000080B582B08DF807009DF8072086
:103E500041F60040C4F202000421FDF771FF02B0F8
:103E600080BD000080B582B08DF807009DF8072066
:103E700041F60040C4F202000821FDF761FF02B0E4
:103E800080BD000080B584B003900291ADF806209B
:103E900003980299BDF80620FFF712FA04B080BD1E
:103EA00080B594B008A83021FCF780FA0020079074
:103EB0000690059004900390FFE70020029043F6DF
:103EC0004000C4F20200016841F0805101600068C6
:103ED00000F0805002900298FFE7FFE70020019079
:103EE00047F20000C4F20000016841F44041016063
:103EF000006800F4404001900198FFE7012008901D
:103F00004FF48030099002200E904FF480010F9101
:103F100006211091B421119112900420139008A849
:103F2000FEF710FA18B1FFE7FCF7AAFBFFE7FDF771
:103F3000D9FF18B1FFE7FCF7A3FBFFE70F200390C1
:103F400002200490002005904FF4A05006904FF4FA
:103F50008050079003A80521FEF724F818B1FFE769
:103F6000FCF78EFBFFE714B080BD000082B001902B
:103F700001981C3000900198006840F205218842A9
:103F800026D1FFE700980178407840EA012040F20E
:103F90008001C2F20001088000988178C07840EA70
:103FA000012040F28201C2F20001088000980179EC
:103FB000407940EA012040F28601C2F20001088007
:103FC0000098807940F28401C2F200010880FFE786
:103FD00002B0704780B58EB00D908DF833100B9203
:103FE0000A939DF833008007002819D5FFE70B9846
:103FF000C00400900B98C0009DF8331001F003013D
:1040000040EA410001900A98C00402900A98C0005A
:104010009DF8331001F0030140EA4100039012E0E3
:104020000B98400100909DF8330000F00300400021
:1040300001900A98400102909DF8330000F00300BF
:1040400040000390FFE79DF83300C00805909DF8FD
:104050003300C0F3800004900120089000210691F5
:1040600007900E2009900D986946FCF711FB0EB0E1
:1040700080BD000080B540F64820C2F2000040F24A
:10408000B811C2F200013122FFF7FCFE80BD000032
:1040900080B584B003908DED020ACDED010A03983E
:1040A00000F00100FFF7BEFE0398C0F34000FFF7E9
:1040B000A9FE0398C0F38000FFF7D4FE0398C0F375
:1040C000C000FFF7BFFE039800F010010120009030
:1040D00080EA111000F014F90098039901F0200112
:1040E00080EA511000F0FCF80098039901F04001BB
:1040F00080EA911000F074F800989DF80C1080EAA6
:10410000D11000F07DF80098039901F4807180EAE5
:10411000112000F085F80098039901F4007180EAFD
:10412000512000F08DF80098039901F4806180EA35
:10413000912000F095F80098039901F4006180EA5D
:10414000D12000F09DF80098039901F4805180EA95
:10415000113000F0A5F80098039901F4005180EAAD
:10416000513000F0ADF804B080BD000080B582B0E1
:10417000019000910198FDF725F8019801684869C0
:1041800040F00200486101980168486940F0100061
:1041900048610198006846F20041C4F2000188427B
:1041A00009D1FFE7019840F27001C2F200010860F6
:1041B0000098486012E00198006846F60001C4F2D9
:1041C0000001884209D1FFE7019840F27801C2F26C
:1041D0000001086000984860FFE7FFE702B080BD7B
:1041E00080B582B08DF807009DF8072041F60000E9
:1041F000C4F202000221FDF7A3FD02B080BD000061
:1042000080B582B08DF807009DF8072041F60000C8
:10421000C4F202000421FDF793FD02B080BD00004E
:1042200080B582B08DF807009DF8072041F60000A8
:10423000C4F202000821FDF783FD02B080BD00003A
:1042400080B582B08DF807009DF8072041F6000088
:10425000C4F202001021FDF773FD02B080BD000022
:1042600080B582B08DF807009DF8072041F6000068
:10427000C4F202002021FDF763FD02B080BD000002
:1042800080B582B08DF807009DF8072041F6000048
:10429000C4F202004021FDF753FD02B080BD0000D2
:1042A00080B582B08DF807009DF8072041F6000028
:1042B000C4F202008021FDF743FD02B080BD000082
:1042C00080B582B08DF807009DF8072041F6000008
:1042D000C4F202004FF48071FDF732FD02B080BDE0
:1042E00080B582B08DF807009DF8072041F20040AC
:1042F000C4F202004FF48041FDF722FD02B080BD00
:1043000080B582B08DF807009DF8072041F20000CB
:10431000C4F202004FF40061FDF712FD02B080BD4F
:1043200080B584B003900291ADF806200093039805
:10433000006841F20001C4F2010188420ED1FFE79A
:10434000029840F29801C2F200014860BDF80600F0
:104350000881039808600098C860A7E00398006887
:1043600044F20041C4F2000188420ED1FFE70298F6
:1043700040F2A811C2F200014860BDF806000881B1
:10438000039808600098C8608FE00398006844F6BE
:104390000001C4F2000188420ED1FFE7029840F20A
:1043A000B821C2F200014860BDF8060008810398F8
:1043B00008600098C86077E00398006844F6004100
:1043C000C4F2000188420ED1FFE7029840F2C831E2
:1043D000C2F200014860BDF8060008810398086039
:1043E0000098C8605FE00398006845F20001C4F2DD
:1043F000000188420ED1FFE7029840F2D841C2F294
:1044000000014860BDF80600088103980860009824
:10441000C86047E00398006841F20041C4F201011E
:1044200088420ED1FFE7029840F2E851C2F2000143
:104430004860BDF806000881039808600098C860CD
:104440002FE00398006847F60001C4F2000188429B
:104450000ED1FFE7029840F2F861C2F20001486015
:10446000BDF806000881039808600098C86017E04E
:104470000398006847F60041C4F2000188420ED15B
:10448000FFE7029840F60801C2F200014860BDF85B
:1044900006000881039808600098C860FFE7FFE7FE
:1044A000FFE7FFE7FFE7FFE7FFE7FFE70398029972
:1044B000BDF80620FEF7AEFA04B080BD80B582B02C
:1044C0000190019800F0E8F802B080BD10B586B008
:1044D0008C46864609980899CDF814E0CDF810C0AE
:1044E0008DF80F2002938DF807108DF806000598BF
:1044F0000090049901600068006841F20001C4F274
:10450000010188420DD1FFE7009940F29800C2F204
:1045100000004068886040F2A800C2F200004860D5
:10452000A7E000980068006844F20041C4F200016E
:1045300088420DD1FFE7009940F2A810C2F20000B6
:104540004068886040F2B810C2F2000048608FE016
:1045500000980068006844F60001C4F20001884237
:104560000DD1FFE7009940F2B820C2F20000406888
:10457000886040F2C820C2F20000486077E00098EE
:104580000068006844F60041C4F2000188420DD181
:10459000FFE7009940F2C830C2F20000406888602E
:1045A00040F2D830C2F2000048605FE00098006836
:1045B000006845F20001C4F2000188420DD1FFE716
:1045C000009940F2D840C2F200004068886040F292
:1045D000E840C2F20000486047E0009800680068C8
:1045E00041F20041C4F2010188420DD1FFE7009978
:1045F00040F2E850C2F200004068886040F2F85093
:10460000C2F2000048602FE000980068006847F69A
:104610000001C4F2000188420DD1FFE7009940F289
:10462000F860C2F200004068886040F20870C2F290
:104630000000486017E000980068006847F60041F5
:10464000C4F2000188420DD1FFE7009940F608004E
:10465000C2F200004068886040F61800C2F2000014
:104660004860FFE7FFE7FFE7FFE7FFE7FFE7FFE758
:10467000FFE700999DF80F000873029808619DF804
:10468000070008759DF8060048759DF80600496802
:10469000087006B010BD000088B007900798019020
:1046A00000200690FFE70698FF280ADCFFE7019844
:1046B0004168069A00208854FFE70698013006906A
:1046C000F1E70198417D42681170007D28B1FFE754
:1046D0000198007D032819D1FFE700200590FFE72E
:1046E0000199059891F8481088420EDAFFE7019A7F
:1046F000059902EB81008069007852681144487086
:10470000FFE7059801300590EAE7D5E00198007DC4
:10471000012805D0FFE70198007D042824D1FFE798
:1047200000200490FFE70199049891F8481088420E
:1047300019DAFFE7019901F11800DDF810C050F80F
:104740002C2012784B6803EB4C035A70049A50F8F3
:1047500022004078496801EB42018870FFE7049825
:1047600001300490DFE7A6E00198007D02280AD01E
:10477000FFE70198007D052805D0FFE70198007D3F
:10478000062836D1FFE700200390FFE70199039840
:1047900091F8481088422BDAFFE7019901F11800DF
:1047A000DDF80CC050F82C2012784B6803EB8C031A
:1047B0005A70DDF80CC050F82C2052784B6803EB8F
:1047C0008C039A70DDF80CC050F82C2092784B685E
:1047D00003EB8C03DA70039A50F82200C078496822
:1047E00001EB82010871FFE7039801300390CDE7E8
:1047F00060E00198007D07285BD1FFE70020029070
:10480000FFE70199029891F84810884250DAFFE7D3
:10481000019901F118000090DDF808C050F82C2033
:1048200012784B6803EBCC035A70DDF808C050F8DF
:104830002C2052784B6803EBCC039A70DDF808C04B
:1048400050F82C2092784B6803EBCC03DA70DDF83B
:1048500008C050F82C20D2784B6803EBCC031A71B7
:10486000DDF808C050F82C2012794B6803EBCC031C
:104870005A71DDF808C050F82C2052794B6803EBD0
:10488000CC039A71DDF808C050F82C2092794B685F
:1048900003EBCC03DA71029A50F82200C079496820
:1048A00001EBC2010872FFE7029801300290A8E70D
:1048B000FFE7FFE7FFE7FFE708B0704787B0069321
:1048C0000592049003910498009005A8029000209E
:1048D0000190FFE70198039988420EDAFFE70099FB
:1048E0000298021D02920068019A01EB8201886120
:1048F000FFE7019801300190ECE70099039881F8F7
:10490000480007B07047000081B000900098002177
:1049100080F8481080F849104165016501B0704782
:1049200081B08DF803009DF9030000280ED4FFE745
:104930009DF9031001F01F02012090404A094EF238
:104940000011CEF2000141F82200FFE701B07047EC
:104950004EF60C50CEF200000068C0F30220704703
:1049600082B08DF8070000919DF9070000280AD455
:10497000FFE7009800019DF907104EF20042CEF2C9
:10498000000288540BE0009800019DF8071001F028
:104990000F014EF61452CEF200028854FFE702B027
:1049A0007047000083B00290029800F0070000906A
:1049B0004EF60C51CEF200010868019001984FF6B6
:1049C000FF02104001900198009A40EA0220002264
:1049D000C0F2FA52104301900198086003B070478A
:1049E00080B540F69020C2F20000FFF78DFF80BD39
:1049F00080B588B0002006900790FDF7CDF9FFF74D
:104A00004FFAFEF73FFDFEF715FDFEF7EBFCFEF754
:104A10008DFD0F20DFED430AB0EE600AFFF738FB93
:104A200040F66010C2F20000049043F66D71C0F6CB
:104A30000001FFF79BFB069B40F64820C2F20000F6
:104A4000059019461A46FFF76BFC04986C2140F25A
:104A5000052240F2FF73FFF7BDFA0599069B6A46EF
:104A6000AB2050600620106040F69020C2F200009B
:104A70001A46FFF72BFDFFE740F28000C2F200006C
:104A8000B0F9000000EE100AB8EEC00A40F2880249
:104A9000C2F2000282ED000A40F28200C2F200007F
:104AA000B0F9000000EE100AB8EEC00A40F28C0324
:104AB000C2F2000383ED000A40F28600C2F2000059
:104AC000B0F9000000EE100AB8EEC00A40F29400FF
:104AD000C2F2000080ED000A40F28401C2F200013F
:104AE000B1F9001000EE101AB8EEC00A40F2900CB6
:104AF000C2F2000C8CED000A6946C1F804C00860DF
:104B000040F69020C2F2000003900421FFF7D6FE89
:104B10000398FFF7D3FCFFF7ADFA0020FCF7F6FE91
:104B2000AAE700BF00000000F1EE100A4FF6FF7187
:104B3000C0F2C03120EA010040F04070E1EE100AFE
:104B40007047000000000000000001020304060797
:104B50000809000000000102030400061016000608
:104B600010160000884B0008000000201000000014
:104B700010020008984B000810000020E010000010
:104B80003002000879F2FFFF0024F4000100000069
:084B900010000000000000000D
:04000005080001AD41
:00000001FF
